:020000040800F2
:10000000F806002065010008971100089511000806
:1000100000000000000000000000000000000000E0
:100020000000000000000000000000009B1100081C
:100030000000000000000000991100089D11000858
:1000400077010008770100087701000877010008B0
:1000500077010008770100087701000877010008A0
:100060007701000877010008770100087701000890
:100070007701000877010008000000007701000800
:1000800000000000770100080000000000000000F0
:1000900077010008000000007701000877010008E0
:1000A0007701000877010008770100087701000850
:1000B0007701000877010008770100087701000840
:1000C00000F002F800F03EF80CA030C80838241800
:1000D0002D18671EA246AB4654465D46AC4201D180
:1000E00000F030F87E460F3EB6460FCC0126334274
:1000F00000D0FB1A3343A246AB461847241A00002F
:10010000441A0000103A02D378C878C1FAD85207CE
:1001100001D330C830C101D504680C6070470000BD
:100120000023002400250026103A01D378C1FBD813
:10013000520700D330C100D50B6070471FB51FBDFB
:1001400010B510BD00F0D5F81146FFF7F7FF01F02C
:100150002DFA00F0EDF803B4FFF7F2FF03BC00F056
:10016000F3F800000748804707480047FEE7FEE72E
:10017000FEE7FEE7FEE7FEE704480549054A064BB1
:1001800070470000A5110008C1000008F800002019
:10019000F8060020F8020020F8020020FEB5044610
:1001A00010460D46184373D0A6468C460020A41A6C
:1001B00001469D4167D36646002701243D46B61A95
:1001C0009D4102D313463A462124654676462F04C4
:1001D000360C3E432D0CB61A9D4104D3150C1B045E
:1001E0002B4312041034654676462F06360A3E43EA
:1001F0002D0AB61A9D4104D3150E1B022B43120281
:100200000834654676462F0736093E432D09B61A4F
:100210009D4104D3150F1B012B431201241D65467C
:100220007646AF07B6083E43AD08B61A9D4104D3E3
:10023000950F9B002B439200A41C65467646EF0762
:1002400076083E436D08B61A9D411AD392185B4159
:10025000641C16E00018764665464941B71A9D4170
:100260000191009009D36046B11A98418E468446A8
:10027000009801990025401C6941DD0752082A4376
:100280005B08641EE6D57246634603B0F0BDFFE727
:100290002046284307D00020C0430146C046C04640
:1002A00022462B46F1E700200146F7E701E004C0B3
:1002B000091F0429FBD28B0701D50280801CC907C6
:1002C00000D00270704700290BD0C30702D0027023
:1002D000401C491E022904D3830702D50280801CDA
:1002E000891EE3E70022EEE70022DFE77047704750
:1002F0007047754600F024F8AE460500694653463F
:10030000C008C000854618B020B5FFF735FF60BCB7
:10031000B64600260027C0C5C0C5C0C5C0C5C0C5FB
:10032000C0C5C0C5C0C5403D490849008D4670479D
:1003300010B50446C046C0462046FFF70CFF10BD6E
:10034000004870471000002001491820ABBEFEE7AE
:100350002600020070470000B0B5044600F0EAF83D
:100360000546601C02D093480078041900F0E2F8BA
:10037000401BA042FAD3B0BDF0B58BB00991064640
:100380006548864205D0062009990B68002B06D1E6
:10039000BFE0052009990B68002B00D1B9E00B21C3
:1003A000090772180A21CA410092042A00D300905A
:1003B0000124002203940A920892049611E0194342
:1003C0005648C160099803681846E040121D641C35
:1003D0000A99891C0A910899491C0891002800D1A2
:1003E00097E0611E0398079188400340EAD0069287
:1003F000099A55680326294631404F1E012F029560
:100400001AD8032601940A9CA6400593049B9F6872
:10041000B743D2680A9CA240019C3A439A60EA061C
:10042000D20F079FBA405F68874317435F60059B01
:10043000F543089847000BE030460A9A9040C543C0
:100440000329174604D105950A9F3146049E20E0F2
:10045000049EF0682840099A9268BA400243F2600C
:100460000229059515D11C20069908400F218140CD
:10047000079AD2089200B218166A8E43099D29691C
:1004800081403143049E1162069A6D680321294020
:1004900001E0069A029DB9403068059F3840084344
:1004A0003060A803800F8DD0494E30680121014390
:1004B00031600C2010400F2181400322079F974399
:1004C000174D7A598A430099814011437951099A0D
:1004D000124801685068C20301D5194300E09943EE
:1004E0000E4A11605168820301D5194300E0994317
:1004F0000A4A51609168C20201D5194300E099434C
:10050000069A064EB160F168800200D557E799431C
:1005100056E70BB0F0BDC046001C0050000401407F
:1005200008000140002A02D018228150704728227A
:1005300081507047054800687047C0461D480078E4
:1005400002490A68101808607047C046F40000208D
:1005500010B50848016840220A4302600024204682
:1005600000F00AF8002801D0012010BD00F026F8A4
:10057000204610BD0020024070B504467D20C0001A
:100580000C4E317801F0B8F901460B48006801F0D3
:10059000B3F900F057FD0125032C08D8002806D137
:1005A0000025E84321462A4600F014F874602846E6
:1005B00070BDC0460000002008000020044801680B
:1005C000012211430160110742680A4342607047EB
:1005D00034100240002805D40322034693430C4AFA
:1005E0009A1806E00F220240083A03239A43074B69
:1005F000D2188007C00E8901C9B28140FF23834011
:1006000010689843084310607047C0461CED00E036
:1006100000E400E0F0B589B002680125EB0219465C
:100620002031714C0A4200D198E0039308902907C9
:10063000143C20680840069002D1206808432060DE
:10064000049405912F02694C2068C00511D42068DC
:1006500038432060FFF76EFF06462068384208D115
:10066000FFF768FF801B6428F7D90325284609B0E7
:10067000F0BD032634055C484C38079001682140E2
:10068000089843681A462240019636049142029423
:100690000AD18268224091421C46079B0DD0214618
:1006A0003140B14206D008E019463140B1421C4603
:1006B000079B02D119688903D8D44B494968314056
:1006C00033D022463240914202D00278920607D4BB
:1006D00082683240914228D00168039A114224D0A6
:1006E00041494A680392EA044B6813434B604B68E4
:1006F00093434B60079B039D2A46B2434A603D42A9
:1007000013D0FFF717FF0546C04C374F78688005B8
:1007100008D4FFF70FFF401BA042F7D9019D2846E0
:1007200009B0F0BD08984468079B21463140B142AA
:1007300008D1029A1440032212051D461B689343F8
:1007400023432B60284C62680A43626006990029A3
:1007500004D1049B1968059A914319600368D9076D
:100760000BD1990711D4590717D419071ED459066C
:1007700025D4002519062DD478E72168032291435A
:10078000C2680A4322609907EDD521680C22914383
:1007900002690A4322605907E7D5032189022268CA
:1007A0008A434169114321601907E0D503210903F8
:1007B00022688A438169114321605906D9D50121F4
:1007C000890622688A43016A1143216000251906BF
:1007D00000D44BE703218A0421689143C069084390
:1007E0002060284609B0F0BD4C1002400070004067
:1007F000F0B583B00290002846D00E4682480068CB
:10080000012101910840B04216D27F4908680125B4
:10081000A843304308607D4CFFF78CFE07467A48BA
:1008200000682840B04207D0FFF784FEC01BA042FA
:10083000F5D9032003B0F0BD029800688107814D0F
:1008400006D52968F0229143029A92680A432A60E9
:10085000C0071CD16C48006801273840B04225D938
:1008600069490868B8430860684CFFF763FE0546AD
:1008700065480068C00719D0FFF75CFE401BA04226
:10088000F6D9032003B0F0BD012003B0F0BD0298FB
:10089000426829460C39012A32D0032A35D0022A6F
:1008A00039D109688903019833D538E00298006886
:1008B0004107644C07D50721090222688A4302993F
:1008C000C96811432160000708D50720C0022168CC
:1008D000814302980069C00008432060216808072E
:1008E000820F73487A4412795200974401617F68FD
:1008F00038042146083909680904490F884075E021
:1009000009684907019804D509E009688901019837
:1009100005D403B0F0BD096889050198F9D52968A7
:1009200003200190814311432960FFF703FE07462E
:1009300002984068354C032811D002281DD00128A8
:1009400029D128680C210140042900D182E7FFF752
:10095000F1FDC01BA042F4D9019803B0F0BD286896
:100960000C2101400C2900D174E7FFF7E3FDC01B07
:10097000A042F4D9019803B0F0BD28680C210140D1
:10098000082900D166E7FFF7D5FDC01BA042F4D9C6
:10099000019803B0F0BD28680007800F00D159E727
:1009A000FFF7C8FDC01BA042F5D9019803B0F0BD08
:1009B00020460C380068C00612D53F4816E08A026F
:1009C000120F3C4B9A5C0902890F491C2368DB0318
:1009D00009D420460C380068C00603D4374802E02A
:1009E000364803E03448504300F086FF216809068A
:1009F000090F074A515CC840114908600548006862
:100A0000FFF7BAFD03B0F0BD0020024088130000DC
:100A1000EE1A000804000020094800680949096826
:100A20004905490F084A515CC840704704480068AE
:100A3000044909688904490F034A515CC84070475A
:100A4000080000200C100240FE1A000810B5804A71
:100A5000D1680807830F16487B441B795B009F44CD
:100A60000108070D0120000451680904490F88405E
:100A700010BD1068C00613D50F4810BD8B021B0FA8
:100A80000C4CE35C0902890F491CD468E40303D4CD
:100A90001068C00606D40948584300F02DFF10BD69
:100AA000064810BD0448584300F026FF10BDC0465C
:100AB00000127A00061B000800093D000024F40023
:100AC000F0B589B0002856D0614EF1680C220A407A
:100AD0000692012105910904F76804910F400790DF
:100AE0000078C00710D00698082806D006980C2871
:100AF00000D0CFE0002F00D1CCE03068800303D5D8
:100B00000798406800284AD007980078800735D4B5
:100B100007980078C00645D40798007800075FD48E
:100B200007990878400700D594E00878800600D53A
:100B30001BE10798846A002C1AD006980C2800D074
:100B400067E1012C2BD0F068049A0240079BD96A18
:100B50008A4224D10F21890401401A6B91421ED18F
:100B6000032189050840596B8842059800D053E25B
:100B7000002009B0F0BD012009B0F0BD079BD86886
:100B80000699042906D006990C2900D0ADE0002F63
:100B900000D0AAE03168490739D5002837D1059837
:100BA00009B0F0BD0698002800D1B4E0306807997C
:100BB000C969002900D108E101210A02104330600F
:100BC0004C02FFF7B7FC05463068204200D00FE129
:100BD000FFF7B0FC401B0228F6D9032009B0F0BD96
:100BE000306D07994969002900D1DDE001210843F2
:100BF0003065FFF79FFC0546306D800790D4FFF706
:100C000099FC401B0228F7D9032009B0F0BD1F2131
:100C1000090272688A4319690902114371603168D7
:100C20000922914301433160F1680807820FFB48B4
:100C30005200C0467A449288520097440300200133
:100C4000DE01260170680004410F04988840D4E159
:100C50000010024001221107B06B0840029002D13F
:100C6000B06B0843B063019103921402F24F3868ED
:100C7000C00525D4386820433860FFF75BFC054683
:100C8000386820421CD1FFF755FC411B0320642922
:100C9000F6D9C1E10798406805994C040499884247
:100CA00009D005210904884200D0C9E005988004D4
:100CB0003168014331603068049908433060CFE007
:100CC00007988068002800D122E1052109028842A6
:100CD000039A00D133E1A04200D134E1306DA0434A
:100CE00030659102306D88432FE13168002800D1D2
:100CF000DDE00922914301433160FFF71BFC05460B
:100D00003068400700D5F9E0FFF714FC411B0320D1
:100D10000229F5D980E130688005079B03D5D869A1
:100D2000002800D13BE70720400371688143586ADF
:100D300001437160FF21090672688A43196A090636
:100D400089187160400B04998140F0680006000F1B
:100D5000B64A105CC140B6480160B6480068FFF76B
:100D60000BFC002800D057E1D6E6B06807998969E6
:100D7000002900D1ACE001210843B060706B08434A
:100D800070634803AE490A6802430A60FFF7D2FB6A
:100D90000546B068800700D5CBE6FFF7CBFB411BCB
:100DA00003200229F5D937E1012188433065FFF797
:100DB000C1FB0546306D800700D4B1E6FFF7BAFBF2
:100DC000411B03200229F5D926E101210A029043A3
:100DD00030604C02FFF7AEFB05463068204200D180
:100DE0009AE6FFF7A7FB411B03200229F5D913E17F
:100DF0000720400371688143079A506A0843706076
:100E0000FF20000671688143106A00064018706078
:100E100082E601273806316881433160FFF78AFB9B
:100E20000546022C00D0AAE07F063068384200D187
:100E3000C1E0FFF77FFB411B03200229F5D9EBE05E
:100E40003168049A914331603168114008910899E2
:100E50000599890432688A433260002800D19CE0F9
:100E6000FFF768FB05463068204200D04CE6FFF7EC
:100E700061FB401B6428F6D9032009B0F0BD30683F
:100E8000C00600D487E06748B7E08A02120F644BBF
:100E90009A5C0902890F491CF368049C234200D024
:100EA000A8E03068C00600D5A3E05F48A2E00120BA
:100EB00081433160FFF73EFB05463068400700D4B0
:100EC00026E6FFF737FB411B03200229F5D9A3E0F3
:100ED00001218843B060480359490A6882430A6087
:100EE000FFF728FB0546B068800700D421E6FFF72E
:100EF00021FB411B03200229F5D98DE01F200002B0
:100F00007168814307980069000208437060FFE53B
:100F1000306DA0433065039A9002316D8143316595
:100F20005402464FFFF706FB0546306D20421CD0A9
:100F3000FFF700FB411B0320B942F6D96CE0900299
:100F4000316D01433165306D2043306554023B4FB4
:100F5000FFF7F0FA0546306D204206D1FFF7EAFAB6
:100F6000411B0320B942F6D956E0029800280799A0
:100F700000D0DAE5B06B019A9043B063D5E57C060A
:100F80003068204200D1F3E5FFF7D4FA411B03207B
:100F90000229F5D940E024482FE0FFF7CBFA0546B7
:100FA0003068204200D1AFE5FFF7C4FA411B0320AF
:100FB0006429F5D930E0FD200004F1688143079BE6
:100FC0002C330DCB084310431843F0602748401CD6
:100FD000316801433160FFF7ADFA044630683842AA
:100FE00000D0C5E5FFF7A6FA011B03200229F5D9B9
:100FF00012E00C48504300F07FFCF1680906090F2D
:101000000A4A515CC8400A4908600A480068FFF76C
:10101000B3FA002800D17BE509B0F0BD00127A00D8
:10102000061B000800093D000024F400EE1A000829
:101030000800002004000020007000408813000019
:1010400020000140401E010E01D0012070470749D9
:10105000074A5060074803680B4003218907591865
:10106000016000209060072111607047FFFFFF00C2
:1010700010E000E020ED00E0F0B583B0002841D0A2
:10108000044607467437806F002804D1002038706A
:10109000204600F057F82420A06720680168012549
:1010A000A9430160204600F0E7F8012827D0606AD4
:1010B000002802D0204600F076F80920C0022168FE
:1010C0004A6882434A6088682A2290438860086898
:1010D0000126304308600025FD60FFF72BFA034628
:1010E00020680168090713D5154800907105002292
:1010F0002046029300F0BEF9002807D003252846B9
:1011000003B0F0BD0125284603B0F0BD2068029B66
:10111000006840070CD50A480090B105002220461F
:1011200000F0A8F9002803D00325284603B0F0BD3D
:101130002020A067E0673D702566284603B0F0BD1B
:10114000FFFFFF0180B586B00068BD49884201D02D
:1011500006B080BD012041040D4AD3680B43D36023
:10116000116801431160116801400091042005904D
:101170000320049000200390022002900C20019094
:1011800005200007009901A9FFF7F6F806B080BD19
:101190002C100240FEE7FEE77047704780B5FFF76E
:1011A000CDF980BD7047B0B5416ACA070CD18A0736
:1011B00014D44A071CD40A0724D4CA062CD48A069D
:1011C00034D44A063CD44CE00122520403685C68E3
:1011D0009443826A22435A608A07EAD501221204A4
:1011E00003685C689443C26A22435A604A07E2D5A6
:1011F0000122920403685C689443026B22435A60A4
:101200000A07DAD50122D20303685C689443426B73
:1012100022435A60CA06D2D50122120303689C6891
:101220009443826B22439A608A06CAD501225203F4
:1012300003689C689443C26B22439A604A0610D5A7
:1012400001221305026854689C43056C2C435460CA
:101250009D4206D103235B0554689C43436C2343A2
:101260005360090607D50121C904026853688B43FE
:10127000806C18435060B0BDF0B581B00446016881
:1012800008686D4B0340A0682269024360691043FF
:10129000E269104318430860032630034B68834318
:1012A000E06818434860A569644B994202D0206AFF
:1012B000284300E028460B252D028F68AF430743E3
:1012C0008F605F48814208D099420AD05D488142D0
:1012D00038D15D48C06C5EA507E05B48C06C8008F3
:1012E00002E05948C06C800A584D8007000F2F5803
:1012F0000125E80399422AD0824211D1082F00D952
:1013000094E0C0467F443F797F00BF44043D478F4F
:101310004D8F8F8F7600FFF77FFB002848D06CE061
:10132000082F00D982E0C0467F443F797F00BF4448
:101330000430417D477D7D7D7200FFF76DFB002805
:1013400069D141E010270125E8039942D4D1082F43
:101350006CD8C0467F443F797F00BF44046709676B
:101360000F6767673800FFF757FB00282FD109E0A8
:1013700035480068C00629D53A4828E0FFF766FBE3
:10138000002824D1002551E0FFF750FB002834D17C
:101390000EE0FFF74BFB00283DD115E02A4800681E
:1013A000C00629D52F4828E0FFF750FB002824D19C
:1013B00000253BE024480068C0062BD529482AE0D8
:1013C000FFF744FB002826D100252FE0244862685F
:1013D0005643B0422AD31103884227D8010E56083B
:1013E0000002002380195941FEF7D8FE1F49411819
:1013F0001F4A91421AD216E01948400061684A0813
:10140000101800F079FA184901400FD00007400F7A
:10141000084308E0124861684A08101800F06CFAA6
:1014200080B2102802D32168C860002500206066C1
:10143000A066284601B0F0BDF369FFEF0048004008
:10144000004400400038014000100240101B00081A
:10145000010000000400000002000000080000007D
:101460000024F40000093D00F0FF000000FDFFFF34
:1014700000FD0F00F0B587B016460F46054604681C
:10148000E1693940C91B4A424A410020B24224D195
:10149000069304952A4674320C9D002D1FD0691CBA
:1014A00043D1E1693940C91B4A424A41B24214D191
:1014B000E1693940C91B4A424A41B2420DD1E16952
:1014C0003940C91B4A424A41B24206D1E16939401A
:1014D000C91B4A424A41B242E3D007B0F0BD039271
:1014E000FFF728F8049CEFF31081012080F31088A7
:1014F0000D22520123681D6895431D6081F31088F9
:10150000EFF3108180F3108822689368834393601F
:1015100081F310882020A0677C3403990020087094
:1015200020202060032007B0F0BD0392029001202C
:101530000190C0020590049C06E0C0693840C01BC1
:1015400041424141B1422DD1FEF7F4FF0699401AC4
:10155000A842C8D8206801684907EED5C169059A34
:101560001142EAD005990162EFF31080019D85F3E5
:1015700010880D214901226813688B43136080F3A2
:101580001088EFF3108085F3108821688A68AA43D9
:101590008A6080F310882020A067E06703990C46DA
:1015A0000C34BBE7029807B0F0BD0000A6B0FEF710
:1015B000CFFF18A80990001D3421FEF795FE0027E3
:1015C0001297119710970F970E970D970C970B97EF
:1015D0000320C002C2490A6882437D200601901997
:1015E0003030086022970525680321902097012458
:1015F0001F94102018900998FFF762FA002803D072
:10160000EFF3108072B6FEE70995019614970F204C
:10161000139015971697179713A83946FFF7E8F810
:10162000002803D0EFF3108072B6FEE70E97022673
:101630000A960AA8FEF7EEFF002803D0EFF3108009
:1016400072B6FEE71C971B97A64801680422114357
:101650000160016811400A910A99016880221143D2
:101660000160016811400A910A99016825462143E9
:101670000160016821400A910A99016831430160C3
:10168000006830400A900A98099800070990A10262
:10169000059120313A46FEF745FF934838210891DD
:1016A0003A46FEF73FFF1A97212420041990680359
:1016B00018908E4818AE3146FEF75EFE1B971A97BB
:1016C00019956001189009983146FEF755FE1B9751
:1016D0001A97079519950898189083483146FEF790
:1016E0004BFE83480C21E1225202824B0360426090
:1016F0008760C760076141618761C76107624762B0
:10170000FFF7BAFC002803D0EFF3108072B6FEE7B3
:101710000798050200950497012207920998059CF5
:101720002146FEF7FFFE082600256F483146089641
:101730002A46FEF7F7FE202106916B482A46FEF75F
:10174000F1FE10276848394603972A46FEF7EAFE5D
:1017500005200290FEF700FE099821462A46FEF772
:10176000E1FE61483146079C2246FEF7DBFE5E48FB
:10177000069E31462A46FEF7D5FE5B4839462A4684
:10178000FEF7D0FE029F3846FEF7E6FD0998059960
:101790002A46FEF7C7FE544808992A46FEF7C2FEBD
:1017A000514831462246FEF7BDFE4F48039E314662
:1017B0002A46FEF7B7FE3846FEF7CEFD0998059992
:1017C000494C2A46FEF7AEFE204608992A46FEF707
:1017D000A9FE204606992A46FEF7A4FE2046314679
:1017E000009D079AFEF79EFE3846049FFEF7B4FD63
:1017F0007F1CAF428FD10198FEF7AEFD0495002704
:101800000998059D29463A46FEF78CFE0821204698
:101810000E463A46FEF786FE2021039120463A46C0
:10182000FEF780FE10210891012220461446FEF7A3
:1018300079FE05200790FEF78FFD099829463A4664
:10184000FEF770FE2848314606963A46FEF76AFED5
:101850002548039E314602942246FEF763FE224845
:1018600008993A46FEF75EFE0798FEF775FD09985F
:1018700029463A46FEF756FE1B4806992246FEF7D1
:1018800051FE194831463A46FEF74CFE1648089C70
:1018900021463A46FEF746FE079D2846FEF75CFDC8
:1018A00009980599029AFEF73DFE0F4806993A46B7
:1018B000FEF738FE0C4831463A46FEF733FE0A483A
:1018C00021463A46FEF72EFE2846074CFEF744FD19
:1018D000049D6D1E92D10198FEF73EFD1BE7C046A8
:1018E000007000402C10024000040050000800501E
:1018F000700000200044004043088B421AD30022AD
:1019000003098B4279D3030A8B425ED3030B8B42CC
:1019100042D3030C8B4227D30902FF2212BA030CD5
:101920008B4202D31212090203D0030B8B4233D332
:101930001AE0D3E0411A8041401C704703460B4334
:1019400071D443088B42F5D3002203098B4254D350
:10195000030A8B4239D3030B8B421DD3030C8B42FA
:1019600002D394466EE0090AC30B8B4201D3CB032A
:10197000C01A5241830B8B4201D38B03C01A5241D0
:10198000430B8B4201D34B03C01A5241030B8B42D2
:1019900001D30B03C01A5241C30A8B4201D3CB02BD
:1019A000C01A5241830A8B4201D38B02C01A5241A2
:1019B000430A8B4201D34B02C01A5241030A8B42A5
:1019C00001D30B02C01A5241CDD2C3098B4201D3BD
:1019D000CB01C01A524183098B4201D38B01C01A3B
:1019E000524143098B4201D34B01C01A52410309B2
:1019F0008B4201D30B01C01A5241C3088B4201D361
:101A0000CB00C01A524183088B4201D38B00C01A0D
:101A1000524143088B4201D34B00C01A5241411A34
:101A2000524110007047CA0F00D04942031000D342
:101A30004042534000229C4603098B422DD3030AA7
:101A40008B4212D38901FC2212BA030A8B420CD3B7
:101A5000890192118B4208D3890192118B4204D3E0
:101A6000890137D0921100E08909C3098B4201D363
:101A7000CB01C01A524183098B4201D38B01C01A9A
:101A8000524143098B4201D34B01C01A5241030911
:101A90008B4201D30B01C01A5241C3088B4201D3C0
:101AA000CB00C01A524183088B4201D38B00C01A6D
:101AB0005241D9D243088B4201D34B00C01A524144
:101AC000411A00D201465241104663465B1000D3D2
:101AD0004042704763465B1000D3404201B500218D
:101AE000004201D0C9430846C046C04602BD0000BE
:101AF00000000000000001020304060708090000BE
:101B0000000001020304030406080C101820300032
:101B100000000000040000000200000008000000B7
:101B2000401B000800000020100000000401000815
:101B3000501B000810000020E806000020010008EB
:101B40000100000004000000000020000000000070
:04000005080000C12E
:00000001FF
